{"abi":[{"type":"constructor","inputs":[{"name":"avs","type":"address","internalType":"address"},{"name":"allocationManager","type":"address","internalType":"contract IAllocationManager"},{"name":"keyRegistrar","type":"address","internalType":"contract IKeyRegistrar"}],"stateMutability":"nonpayable"},{"type":"function","name":"allocationManager","inputs":[],"outputs":[{"name":"","type":"address","internalType":"contract IAllocationManager"}],"stateMutability":"view"},{"type":"function","name":"avs","inputs":[],"outputs":[{"name":"","type":"address","internalType":"address"}],"stateMutability":"view"},{"type":"function","name":"deregisterOperator","inputs":[{"name":"operator","type":"address","internalType":"address"},{"name":"avs","type":"address","internalType":"address"},{"name":"operatorSetIds","type":"uint32[]","internalType":"uint32[]"}],"outputs":[],"stateMutability":"nonpayable"},{"type":"function","name":"getOperatorSocket","inputs":[{"name":"operator","type":"address","internalType":"address"}],"outputs":[{"name":"","type":"string","internalType":"string"}],"stateMutability":"view"},{"type":"function","name":"keyRegistrar","inputs":[],"outputs":[{"name":"","type":"address","internalType":"contract IKeyRegistrar"}],"stateMutability":"view"},{"type":"function","name":"registerOperator","inputs":[{"name":"operator","type":"address","internalType":"address"},{"name":"avs","type":"address","internalType":"address"},{"name":"operatorSetIds","type":"uint32[]","internalType":"uint32[]"},{"name":"data","type":"bytes","internalType":"bytes"}],"outputs":[],"stateMutability":"nonpayable"},{"type":"function","name":"supportsAVS","inputs":[{"name":"_avs","type":"address","internalType":"address"}],"outputs":[{"name":"","type":"bool","internalType":"bool"}],"stateMutability":"view"},{"type":"function","name":"updateSocket","inputs":[{"name":"operator","type":"address","internalType":"address"},{"name":"socket","type":"string","internalType":"string"}],"outputs":[],"stateMutability":"nonpayable"},{"type":"event","name":"Initialized","inputs":[{"name":"version","type":"uint8","indexed":false,"internalType":"uint8"}],"anonymous":false},{"type":"event","name":"OperatorDeregistered","inputs":[{"name":"operator","type":"address","indexed":true,"internalType":"address"},{"name":"operatorSetIds","type":"uint32[]","indexed":false,"internalType":"uint32[]"}],"anonymous":false},{"type":"event","name":"OperatorRegistered","inputs":[{"name":"operator","type":"address","indexed":true,"internalType":"address"},{"name":"operatorSetIds","type":"uint32[]","indexed":false,"internalType":"uint32[]"}],"anonymous":false},{"type":"event","name":"OperatorSocketSet","inputs":[{"name":"operator","type":"address","indexed":true,"internalType":"address"},{"name":"socket","type":"string","indexed":false,"internalType":"string"}],"anonymous":false},{"type":"error","name":"CallerNotOperator","inputs":[]},{"type":"error","name":"DataLengthMismatch","inputs":[]},{"type":"error","name":"KeyNotRegistered","inputs":[]},{"type":"error","name":"NotAllocationManager","inputs":[]}],"bytecode":{"object":"0x60e060405234801561000f575f5ffd5b50604051610ce5380380610ce583398101604081905261002e91610142565b6001600160a01b0380841660805280831660a052811660c05282828282828282828282828261005b61006f565b50505050505050505050505050505061018c565b5f54610100900460ff16156100da5760405162461bcd60e51b815260206004820152602760248201527f496e697469616c697a61626c653a20636f6e747261637420697320696e697469604482015266616c697a696e6760c81b606482015260840160405180910390fd5b5f5460ff90811614610129575f805460ff191660ff9081179091556040519081527f7f26b83ff96e1f2b6a682f133852f6798a09c465da95921460cefb38474024989060200160405180910390a15b565b6001600160a01b038116811461013f575f5ffd5b50565b5f5f5f60608486031215610154575f5ffd5b835161015f8161012b565b60208501519093506101708161012b565b60408501519092506101818161012b565b809150509250925092565b60805160a05160c051610b0d6101d85f395f818160a3015261051301525f818161017d015281816101d1015261034301525f8181610125015281816101a401526104750152610b0d5ff3fe608060405234801561000f575f5ffd5b5060043610610085575f3560e01c8063b526578711610058578063b526578714610115578063c63fd50214610165578063ca8aa7c714610178578063de1164bb1461019f575f5ffd5b8063303ca956146100895780633ec45c7e1461009e5780636591666a146100e25780638481931d146100f5575b5f5ffd5b61009c610097366004610636565b6101c6565b005b6100c57f000000000000000000000000000000000000000000000000000000000000000081565b6040516001600160a01b0390911681526020015b60405180910390f35b61009c6100f0366004610732565b610258565b61010861010336600461077d565b61028f565b6040516100d9919061079d565b61015561012336600461077d565b7f00000000000000000000000000000000000000000000000000000000000000006001600160a01b0390811691161490565b60405190151581526020016100d9565b61009c6101733660046107d2565b610338565b6100c57f000000000000000000000000000000000000000000000000000000000000000081565b6100c57f000000000000000000000000000000000000000000000000000000000000000081565b336001600160a01b037f0000000000000000000000000000000000000000000000000000000000000000161461020f576040516335e5ec5560e21b815260040160405180910390fd5b836001600160a01b03167ff8aaad08ee23b49c9bb44e3bca6c7efa43442fc4281245a7f2475aa2632718d1838360405161024a9291906108a3565b60405180910390a250505050565b336001600160a01b038316146102815760405163a5523ee560e01b815260040160405180910390fd5b61028b82826103e9565b5050565b6001600160a01b0381165f9081526033602052604090208054606091906102b5906108ea565b80601f01602080910402602001604051908101604052809291908181526020018280546102e1906108ea565b801561032c5780601f106103035761010080835404028352916020019161032c565b820191905f5260205f20905b81548152906001019060200180831161030f57829003601f168201915b50505050509050919050565b336001600160a01b037f00000000000000000000000000000000000000000000000000000000000000001614610381576040516335e5ec5560e21b815260040160405180910390fd5b61038c868585610457565b61039986858585856105b2565b856001600160a01b03167f9efdc3d07eb312e06bf36ea85db02aec96817d7c7421f919027b240eaf34035d85856040516103d49291906108a3565b60405180910390a2505050505050565b505050565b6001600160a01b0382165f90815260336020526040902061040a8282610966565b50816001600160a01b03167f0728b43b8c8244bf835bc60bb800c6834d28d6b696427683617f8d4b0878054b82604051610444919061079d565b60405180910390a25050565b5050505050565b5f5b63ffffffff81168211156105ac575f60405180604001604052807f00000000000000000000000000000000000000000000000000000000000000006001600160a01b0316815260200185858563ffffffff168181106104ba576104ba610a21565b90506020020160208101906104cf9190610a35565b63ffffffff90811690915260405163029ab09960e21b815282516001600160a01b0390811660048301526020840151909216602482015287821660448201529192507f00000000000000000000000000000000000000000000000000000000000000001690630a6ac26490606401602060405180830381865afa158015610558573d5f5f3e3d5ffd5b505050506040513d601f19601f8201168201806040525081019061057c9190610a4e565b6105995760405163815589fb60e01b815260040160405180910390fd5b50806105a481610a6d565b915050610459565b50505050565b5f6105bf82840184610a9d565b90506105cb86826103e9565b505050505050565b80356001600160a01b03811681146105e9575f5ffd5b919050565b5f5f83601f8401126105fe575f5ffd5b50813567ffffffffffffffff811115610615575f5ffd5b6020830191508360208260051b850101111561062f575f5ffd5b9250929050565b5f5f5f5f60608587031215610649575f5ffd5b610652856105d3565b9350610660602086016105d3565b9250604085013567ffffffffffffffff81111561067b575f5ffd5b610687878288016105ee565b95989497509550505050565b634e487b7160e01b5f52604160045260245ffd5b5f82601f8301126106b6575f5ffd5b813567ffffffffffffffff8111156106d0576106d0610693565b604051601f8201601f19908116603f0116810167ffffffffffffffff811182821017156106ff576106ff610693565b604052818152838201602001851015610716575f5ffd5b816020850160208301375f918101602001919091529392505050565b5f5f60408385031215610743575f5ffd5b61074c836105d3565b9150602083013567ffffffffffffffff811115610767575f5ffd5b610773858286016106a7565b9150509250929050565b5f6020828403121561078d575f5ffd5b610796826105d3565b9392505050565b602081525f82518060208401528060208501604085015e5f604082850101526040601f19601f83011684010191505092915050565b5f5f5f5f5f5f608087890312156107e7575f5ffd5b6107f0876105d3565b95506107fe602088016105d3565b9450604087013567ffffffffffffffff811115610819575f5ffd5b61082589828a016105ee565b909550935050606087013567ffffffffffffffff811115610844575f5ffd5b8701601f81018913610854575f5ffd5b803567ffffffffffffffff81111561086a575f5ffd5b89602082840101111561087b575f5ffd5b60208201935080925050509295509295509295565b803563ffffffff811681146105e9575f5ffd5b602080825281018290525f8360408301825b858110156108e05763ffffffff6108cb84610890565b168252602092830192909101906001016108b5565b5095945050505050565b600181811c908216806108fe57607f821691505b60208210810361091c57634e487b7160e01b5f52602260045260245ffd5b50919050565b601f8211156103e457805f5260205f20601f840160051c810160208510156109475750805b601f840160051c820191505b81811015610450575f8155600101610953565b815167ffffffffffffffff81111561098057610980610693565b6109948161098e84546108ea565b84610922565b6020601f8211600181146109c6575f83156109af5750848201515b5f19600385901b1c1916600184901b178455610450565b5f84815260208120601f198516915b828110156109f557878501518255602094850194600190920191016109d5565b5084821015610a1257868401515f19600387901b60f8161c191681555b50505050600190811b01905550565b634e487b7160e01b5f52603260045260245ffd5b5f60208284031215610a45575f5ffd5b61079682610890565b5f60208284031215610a5e575f5ffd5b81518015158114610796575f5ffd5b5f63ffffffff821663ffffffff8103610a9457634e487b7160e01b5f52601160045260245ffd5b60010192915050565b5f60208284031215610aad575f5ffd5b813567ffffffffffffffff811115610ac3575f5ffd5b610acf848285016106a7565b94935050505056fea26469706673582212200df368380bf47c4991fbfde34b2e26314e3d23417be2ab500b296a228a757f4664736f6c634300081b0033","linkReferences":{}},"methodIdentifiers":{"allocationManager()":"ca8aa7c7","avs()":"de1164bb","deregisterOperator(address,address,uint32[])":"303ca956","getOperatorSocket(address)":"8481931d","keyRegistrar()":"3ec45c7e","registerOperator(address,address,uint32[],bytes)":"c63fd502","supportsAVS(address)":"b5265787","updateSocket(address,string)":"6591666a"},"id":93}