{"abi":[{"type":"function","name":"getMessage","inputs":[],"outputs":[{"name":"","type":"string","internalType":"string"}],"stateMutability":"view"},{"type":"function","name":"setMessage","inputs":[{"name":"newMessage","type":"string","internalType":"string"}],"outputs":[],"stateMutability":"nonpayable"}],"bytecode":{"object":"0x60c0604052600b60809081526a12195b1b1bc815dbdc9b1960aa1b60a0525f9061002990826100d3565b50348015610035575f5ffd5b5061018d565b634e487b7160e01b5f52604160045260245ffd5b600181811c9082168061006357607f821691505b60208210810361008157634e487b7160e01b5f52602260045260245ffd5b50919050565b601f8211156100ce57805f5260205f20601f840160051c810160208510156100ac5750805b601f840160051c820191505b818110156100cb575f81556001016100b8565b50505b505050565b81516001600160401b038111156100ec576100ec61003b565b610100816100fa845461004f565b84610087565b6020601f821160018114610132575f831561011b5750848201515b5f19600385901b1c1916600184901b1784556100cb565b5f84815260208120601f198516915b828110156101615787850151825560209485019460019092019101610141565b508482101561017e57868401515f19600387901b60f8161c191681555b50505050600190811b01905550565b61037a8061019a5f395ff3fe608060405234801561000f575f5ffd5b5060043610610034575f3560e01c8063368b877214610038578063ce6d41de1461004d575b5f5ffd5b61004b61004636600461011d565b61006b565b005b61005561007a565b60405161006291906101d0565b60405180910390f35b5f6100768282610289565b5050565b60605f805461008890610205565b80601f01602080910402602001604051908101604052809291908181526020018280546100b490610205565b80156100ff5780601f106100d6576101008083540402835291602001916100ff565b820191905f5260205f20905b8154815290600101906020018083116100e257829003601f168201915b5050505050905090565b634e487b7160e01b5f52604160045260245ffd5b5f6020828403121561012d575f5ffd5b813567ffffffffffffffff811115610143575f5ffd5b8201601f81018413610153575f5ffd5b803567ffffffffffffffff81111561016d5761016d610109565b604051601f8201601f19908116603f0116810167ffffffffffffffff8111828210171561019c5761019c610109565b6040528181528282016020018610156101b3575f5ffd5b816020840160208301375f91810160200191909152949350505050565b602081525f82518060208401528060208501604085015e5f604082850101526040601f19601f83011684010191505092915050565b600181811c9082168061021957607f821691505b60208210810361023757634e487b7160e01b5f52602260045260245ffd5b50919050565b601f82111561028457805f5260205f20601f840160051c810160208510156102625750805b601f840160051c820191505b81811015610281575f815560010161026e565b50505b505050565b815167ffffffffffffffff8111156102a3576102a3610109565b6102b7816102b18454610205565b8461023d565b6020601f8211600181146102e9575f83156102d25750848201515b5f19600385901b1c1916600184901b178455610281565b5f84815260208120601f198516915b8281101561031857878501518255602094850194600190920191016102f8565b508482101561033557868401515f19600387901b60f8161c191681555b50505050600190811b0190555056fea26469706673582212209ecd04bb532494cd3a4807a6d755854e6d14de63784892634ec99e12e105644064736f6c634300081b0033","linkReferences":{}},"methodIdentifiers":{"getMessage()":"ce6d41de","setMessage(string)":"368b8772"},"id":92}