{"abi":[{"type":"constructor","inputs":[{"name":"_allocationManager","type":"address","internalType":"contract IAllocationManager"},{"name":"_operatorSet","type":"tuple","internalType":"struct OperatorSet","components":[{"name":"avs","type":"address","internalType":"address"},{"name":"id","type":"uint32","internalType":"uint32"}]}],"stateMutability":"nonpayable"},{"type":"function","name":"QUORUM_THRESHOLD_BPS","inputs":[],"outputs":[{"name":"","type":"uint256","internalType":"uint256"}],"stateMutability":"view"},{"type":"function","name":"_decodeBLSCertificate","inputs":[{"name":"aggSig","type":"bytes","internalType":"bytes"}],"outputs":[{"name":"certificate","type":"tuple","internalType":"struct IBN254CertificateVerifierTypes.BN254Certificate","components":[{"name":"referenceTimestamp","type":"uint32","internalType":"uint32"},{"name":"messageHash","type":"bytes32","internalType":"bytes32"},{"name":"signature","type":"tuple","internalType":"struct BN254.G1Point","components":[{"name":"X","type":"uint256","internalType":"uint256"},{"name":"Y","type":"uint256","internalType":"uint256"}]},{"name":"apk","type":"tuple","internalType":"struct BN254.G2Point","components":[{"name":"X","type":"uint256[2]","internalType":"uint256[2]"},{"name":"Y","type":"uint256[2]","internalType":"uint256[2]"}]},{"name":"nonSignerWitnesses","type":"tuple[]","internalType":"struct IBN254CertificateVerifierTypes.BN254OperatorInfoWitness[]","components":[{"name":"operatorIndex","type":"uint32","internalType":"uint32"},{"name":"operatorInfoProof","type":"bytes","internalType":"bytes"},{"name":"operatorInfo","type":"tuple","internalType":"struct IBN254TableCalculatorTypes.BN254OperatorInfo","components":[{"name":"pubkey","type":"tuple","internalType":"struct BN254.G1Point","components":[{"name":"X","type":"uint256","internalType":"uint256"},{"name":"Y","type":"uint256","internalType":"uint256"}]},{"name":"weights","type":"uint256[]","internalType":"uint256[]"}]}]}]}],"stateMutability":"pure"},{"type":"function","name":"allocationManager","inputs":[],"outputs":[{"name":"","type":"address","internalType":"contract IAllocationManager"}],"stateMutability":"view"},{"type":"function","name":"batchRoots","inputs":[{"name":"","type":"bytes32","internalType":"bytes32"}],"outputs":[{"name":"","type":"uint256","internalType":"uint256"}],"stateMutability":"view"},{"type":"function","name":"getQuorumThreshold","inputs":[],"outputs":[{"name":"threshold","type":"uint256","internalType":"uint256"}],"stateMutability":"pure"},{"type":"function","name":"isBatchSubmitted","inputs":[{"name":"root","type":"bytes32","internalType":"bytes32"}],"outputs":[{"name":"submitted","type":"bool","internalType":"bool"},{"name":"blockNumber","type":"uint256","internalType":"uint256"}],"stateMutability":"view"},{"type":"function","name":"operatorSet","inputs":[],"outputs":[{"name":"avs","type":"address","internalType":"address"},{"name":"id","type":"uint32","internalType":"uint32"}],"stateMutability":"view"},{"type":"function","name":"submitBatch","inputs":[{"name":"root","type":"bytes32","internalType":"bytes32"},{"name":"fills","type":"bytes","internalType":"bytes"},{"name":"aggSig","type":"bytes","internalType":"bytes"}],"outputs":[],"stateMutability":"nonpayable"},{"type":"function","name":"totalBatchesSubmitted","inputs":[],"outputs":[{"name":"","type":"uint256","internalType":"uint256"}],"stateMutability":"view"},{"type":"event","name":"BatchSubmissionFailed","inputs":[{"name":"root","type":"bytes32","indexed":true,"internalType":"bytes32"},{"name":"submitter","type":"address","indexed":true,"internalType":"address"}],"anonymous":false},{"type":"event","name":"BatchSubmitted","inputs":[{"name":"root","type":"bytes32","indexed":true,"internalType":"bytes32"},{"name":"submitter","type":"address","indexed":true,"internalType":"address"},{"name":"blockNumber","type":"uint256","indexed":false,"internalType":"uint256"},{"name":"batchId","type":"uint256","indexed":false,"internalType":"uint256"}],"anonymous":false},{"type":"error","name":"DuplicateBatchRoot","inputs":[]},{"type":"error","name":"EmptyFillsData","inputs":[]},{"type":"error","name":"InsufficientQuorum","inputs":[]},{"type":"error","name":"InvalidBLSSignature","inputs":[]}],"bytecode":{"object":"0x60a060405234801561000f575f5ffd5b50604051610d9a380380610d9a83398101604081905261002e91610083565b6001600160a01b0391821660805280515f805460209093015163ffffffff16600160a01b026001600160c01b0319909316919093161717905561011b565b6001600160a01b0381168114610080575f5ffd5b50565b5f5f8284036060811215610095575f5ffd5b83516100a08161006c565b92506040601f19820112156100b3575f5ffd5b50604080519081016001600160401b03811182821017156100e257634e487b7160e01b5f52604160045260245ffd5b60405260208401516100f38161006c565b8152604084015163ffffffff8116811461010b575f5ffd5b6020820152919491935090915050565b608051610c616101395f395f818160fb01526102fd0152610c615ff3fe608060405234801561000f575f5ffd5b5060043610610090575f3560e01c8063b7505a7011610063578063b7505a70146100d6578063ca8aa7c7146100f6578063e7a315a414610135578063ee3cec7d14610154578063fa2c48121461018d575f5ffd5b80630e330c2e146100945780634afa71b9146100b057806380d55c33146100b8578063a6ffee81146100cd575b5f5ffd5b61009d60025481565b6040519081526020015b60405180910390f35b611a0b61009d565b6100cb6100c63660046104ac565b6101d2565b005b61009d611a0b81565b6100e96100e4366004610523565b6102de565b6040516100a79190610589565b61011d7f000000000000000000000000000000000000000000000000000000000000000081565b6040516001600160a01b0390911681526020016100a7565b61009d6101433660046106fd565b60016020525f908152604090205481565b6101766101623660046106fd565b5f9081526001602052604090205480151591565b6040805192151583526020830191909152016100a7565b5f546101ae906001600160a01b03811690600160a01b900463ffffffff1682565b604080516001600160a01b03909316835263ffffffff9091166020830152016100a7565b5f8390036101f25760405162d7183360e11b815260040160405180910390fd5b5f858152600160205260409020541561021e57604051632f64ab0b60e11b815260040160405180910390fd5b6102298583836102f9565b61027257604051339086907fd1632dd75eb43e30555ba4840fa8f3cfe43683dddeff04f68be5f36f5308132b905f90a360405163ab1b236b60e01b815260040160405180910390fd5b5f85815260016020526040812043905560028054829061029190610714565b91829055506040805143815260208101839052919250339188917fd28d48ac6551024dfedc522e233a7098f2a213a6838822dba6fc1d1098c072cf910160405180910390a3505050505050565b6102e66103d3565b6102f282840184610aa9565b9392505050565b5f5f7f00000000000000000000000000000000000000000000000000000000000000006001600160a01b0316636e875dba5f6040518263ffffffff1660e01b815260040161036291546001600160a01b038116825260a01c63ffffffff16602082015260400190565b5f60405180830381865afa15801561037c573d5f5f3e3d5ffd5b505050506040513d5f823e601f3d908101601f191682016040526103a39190810190610b87565b905080515f036103b6575f9150506102f2565b60208310156103c8575f9150506102f2565b506001949350505050565b6040518060a001604052805f63ffffffff1681526020015f815260200161040b60405180604001604052805f81526020015f81525090565b8152602001610418610425565b8152602001606081525090565b604051806040016040528061043861044a565b815260200161044561044a565b905290565b60405180604001604052806002906020820280368337509192915050565b5f5f83601f840112610478575f5ffd5b5081356001600160401b0381111561048e575f5ffd5b6020830191508360208285010111156104a5575f5ffd5b9250929050565b5f5f5f5f5f606086880312156104c0575f5ffd5b8535945060208601356001600160401b038111156104dc575f5ffd5b6104e888828901610468565b90955093505060408601356001600160401b03811115610506575f5ffd5b61051288828901610468565b969995985093965092949392505050565b5f5f60208385031215610534575f5ffd5b82356001600160401b03811115610549575f5ffd5b61055585828601610468565b90969095509350505050565b805f5b6002811015610583578151845260209384019390910190600101610564565b50505050565b602081525f610140820163ffffffff84511660208401526020840151604084015260408401516105c6606085018280518252602090810151910152565b5060608401516105da60a085018251610561565b602001516105eb60e0850182610561565b50608084015161012080850152818151808452610160860191506101608160051b87010193506020830192505f5b818110156106f15761015f19878603018352835163ffffffff81511686526020810151606060208801528051806060890152806020830160808a015e5f6080828a010152601f19601f820116880191505060408201519150608087820301604088015260e0810161069860808301845180518252602090810151910152565b602092830151606060c084015280518083529301925f9261010001905b808410156106d857845182526020820191506020850194506001840193506106b5565b5097505050602094850194939093019250600101610619565b50929695505050505050565b5f6020828403121561070d575f5ffd5b5035919050565b5f6001820161073157634e487b7160e01b5f52601160045260245ffd5b5060010190565b634e487b7160e01b5f52604160045260245ffd5b604080519081016001600160401b038111828210171561076e5761076e610738565b60405290565b604051606081016001600160401b038111828210171561076e5761076e610738565b60405160a081016001600160401b038111828210171561076e5761076e610738565b604051601f8201601f191681016001600160401b03811182821017156107e0576107e0610738565b604052919050565b803563ffffffff811681146107fb575f5ffd5b919050565b5f60408284031215610810575f5ffd5b61081861074c565b823581526020928301359281019290925250919050565b5f82601f83011261083e575f5ffd5b61084661074c565b806040840185811115610857575f5ffd5b845b81811015610871578035845260209384019301610859565b509095945050505050565b5f6001600160401b0382111561089457610894610738565b5060051b60200190565b5f606082840312156108ae575f5ffd5b6108b661074c565b90506108c28383610800565b815260408201356001600160401b038111156108dc575f5ffd5b8201601f810184136108ec575f5ffd5b80356108ff6108fa8261087c565b6107b8565b8082825260208201915060208360051b850101925086831115610920575f5ffd5b6020840193505b82841015610942578335825260209384019390910190610927565b60208501525091949350505050565b5f82601f830112610960575f5ffd5b813561096e6108fa8261087c565b8082825260208201915060208360051b86010192508583111561098f575f5ffd5b602085015b83811015610a9f5780356001600160401b038111156109b1575f5ffd5b86016060818903601f190112156109c6575f5ffd5b6109ce610774565b6109da602083016107e8565b815260408201356001600160401b038111156109f4575f5ffd5b82016020810190603f018a13610a08575f5ffd5b80356001600160401b03811115610a2157610a21610738565b610a34601f8201601f19166020016107b8565b8181528b6020838501011115610a48575f5ffd5b816020840160208301375f6020838301015280602085015250505060608201356001600160401b03811115610a7b575f5ffd5b610a8a8a60208386010161089e565b60408301525084525060209283019201610994565b5095945050505050565b5f60208284031215610ab9575f5ffd5b81356001600160401b03811115610ace575f5ffd5b8201808403610120811215610ae1575f5ffd5b610ae9610796565b610af2836107e8565b815260208381013590820152610b0b8660408501610800565b60408201526080607f1983011215610b21575f5ffd5b610b2961074c565b9150610b38866080850161082f565b8252610b478660c0850161082f565b602083015281606082015261010083013591506001600160401b03821115610b6d575f5ffd5b610b7986838501610951565b608082015295945050505050565b5f60208284031215610b97575f5ffd5b81516001600160401b03811115610bac575f5ffd5b8201601f81018413610bbc575f5ffd5b8051610bca6108fa8261087c565b8082825260208201915060208360051b850101925086831115610beb575f5ffd5b6020840193505b82841015610c215783516001600160a01b0381168114610c10575f5ffd5b825260209384019390910190610bf2565b969550505050505056fea26469706673582212201e63379edf63a2d5472c05282658267b09e79ead69e33fea81c15c35e77df1ff64736f6c634300081b0033","linkReferences":{}},"methodIdentifiers":{"QUORUM_THRESHOLD_BPS()":"a6ffee81","_decodeBLSCertificate(bytes)":"b7505a70","allocationManager()":"ca8aa7c7","batchRoots(bytes32)":"e7a315a4","getQuorumThreshold()":"4afa71b9","isBatchSubmitted(bytes32)":"ee3cec7d","operatorSet()":"fa2c4812","submitBatch(bytes32,bytes,bytes)":"80d55c33","totalBatchesSubmitted()":"0e330c2e"},"id":90}