{"abi":[{"type":"constructor","inputs":[{"name":"_allocationManager","type":"address","internalType":"contract IAllocationManager"},{"name":"_operatorSet","type":"tuple","internalType":"struct OperatorSet","components":[{"name":"avs","type":"address","internalType":"address"},{"name":"id","type":"uint32","internalType":"uint32"}]}],"stateMutability":"nonpayable"},{"type":"function","name":"QUORUM_THRESHOLD_BPS","inputs":[],"outputs":[{"name":"","type":"uint256","internalType":"uint256"}],"stateMutability":"view"},{"type":"function","name":"_decodeBLSCertificate","inputs":[{"name":"aggSig","type":"bytes","internalType":"bytes"}],"outputs":[{"name":"certificate","type":"tuple","internalType":"struct IBN254CertificateVerifierTypes.BN254Certificate","components":[{"name":"referenceTimestamp","type":"uint32","internalType":"uint32"},{"name":"messageHash","type":"bytes32","internalType":"bytes32"},{"name":"signature","type":"tuple","internalType":"struct BN254.G1Point","components":[{"name":"X","type":"uint256","internalType":"uint256"},{"name":"Y","type":"uint256","internalType":"uint256"}]},{"name":"apk","type":"tuple","internalType":"struct BN254.G2Point","components":[{"name":"X","type":"uint256[2]","internalType":"uint256[2]"},{"name":"Y","type":"uint256[2]","internalType":"uint256[2]"}]},{"name":"nonSignerWitnesses","type":"tuple[]","internalType":"struct IBN254CertificateVerifierTypes.BN254OperatorInfoWitness[]","components":[{"name":"operatorIndex","type":"uint32","internalType":"uint32"},{"name":"operatorInfoProof","type":"bytes","internalType":"bytes"},{"name":"operatorInfo","type":"tuple","internalType":"struct IBN254TableCalculatorTypes.BN254OperatorInfo","components":[{"name":"pubkey","type":"tuple","internalType":"struct BN254.G1Point","components":[{"name":"X","type":"uint256","internalType":"uint256"},{"name":"Y","type":"uint256","internalType":"uint256"}]},{"name":"weights","type":"uint256[]","internalType":"uint256[]"}]}]}]}],"stateMutability":"pure"},{"type":"function","name":"allocationManager","inputs":[],"outputs":[{"name":"","type":"address","internalType":"contract IAllocationManager"}],"stateMutability":"view"},{"type":"function","name":"batchRoots","inputs":[{"name":"","type":"bytes32","internalType":"bytes32"}],"outputs":[{"name":"","type":"uint256","internalType":"uint256"}],"stateMutability":"view"},{"type":"function","name":"getQuorumThreshold","inputs":[],"outputs":[{"name":"threshold","type":"uint256","internalType":"uint256"}],"stateMutability":"pure"},{"type":"function","name":"isBatchSubmitted","inputs":[{"name":"root","type":"bytes32","internalType":"bytes32"}],"outputs":[{"name":"submitted","type":"bool","internalType":"bool"},{"name":"blockNumber","type":"uint256","internalType":"uint256"}],"stateMutability":"view"},{"type":"function","name":"operatorSet","inputs":[],"outputs":[{"name":"avs","type":"address","internalType":"address"},{"name":"id","type":"uint32","internalType":"uint32"}],"stateMutability":"view"},{"type":"function","name":"submitBatch","inputs":[{"name":"root","type":"bytes32","internalType":"bytes32"},{"name":"fills","type":"bytes","internalType":"bytes"},{"name":"aggSig","type":"bytes","internalType":"bytes"}],"outputs":[],"stateMutability":"nonpayable"},{"type":"function","name":"totalBatchesSubmitted","inputs":[],"outputs":[{"name":"","type":"uint256","internalType":"uint256"}],"stateMutability":"view"},{"type":"event","name":"BatchSubmissionFailed","inputs":[{"name":"root","type":"bytes32","indexed":true,"internalType":"bytes32"},{"name":"submitter","type":"address","indexed":true,"internalType":"address"}],"anonymous":false},{"type":"event","name":"BatchSubmitted","inputs":[{"name":"root","type":"bytes32","indexed":true,"internalType":"bytes32"},{"name":"submitter","type":"address","indexed":true,"internalType":"address"},{"name":"blockNumber","type":"uint256","indexed":false,"internalType":"uint256"},{"name":"batchId","type":"uint256","indexed":false,"internalType":"uint256"}],"anonymous":false},{"type":"error","name":"DuplicateBatchRoot","inputs":[]},{"type":"error","name":"EmptyFillsData","inputs":[]},{"type":"error","name":"InsufficientQuorum","inputs":[]},{"type":"error","name":"InvalidBLSSignature","inputs":[]}],"bytecode":{"object":"0x60a060405234801561000f575f5ffd5b50604051610c30380380610c3083398101604081905261002e91610083565b6001600160a01b0391821660805280515f805460209093015163ffffffff16600160a01b026001600160c01b0319909316919093161717905561011b565b6001600160a01b0381168114610080575f5ffd5b50565b5f5f8284036060811215610095575f5ffd5b83516100a08161006c565b92506040601f19820112156100b3575f5ffd5b50604080519081016001600160401b03811182821017156100e257634e487b7160e01b5f52604160045260245ffd5b60405260208401516100f38161006c565b8152604084015163ffffffff8116811461010b575f5ffd5b6020820152919491935090915050565b608051610afe6101325f395f60fb0152610afe5ff3fe608060405234801561000f575f5ffd5b5060043610610090575f3560e01c8063b7505a7011610063578063b7505a70146100d6578063ca8aa7c7146100f6578063e7a315a414610135578063ee3cec7d14610154578063fa2c48121461018d575f5ffd5b80630e330c2e146100945780634afa71b9146100b057806380d55c33146100b8578063a6ffee81146100cd575b5f5ffd5b61009d60025481565b6040519081526020015b60405180910390f35b611a0b61009d565b6100cb6100c63660046103ed565b6101d2565b005b61009d611a0b81565b6100e96100e4366004610464565b6102de565b6040516100a791906104ca565b61011d7f000000000000000000000000000000000000000000000000000000000000000081565b6040516001600160a01b0390911681526020016100a7565b61009d61014336600461063e565b60016020525f908152604090205481565b61017661016236600461063e565b5f9081526001602052604090205480151591565b6040805192151583526020830191909152016100a7565b5f546101ae906001600160a01b03811690600160a01b900463ffffffff1682565b604080516001600160a01b03909316835263ffffffff9091166020830152016100a7565b5f8390036101f25760405162d7183360e11b815260040160405180910390fd5b5f858152600160205260409020541561021e57604051632f64ab0b60e11b815260040160405180910390fd5b6102298583836102f9565b61027257604051339086907fd1632dd75eb43e30555ba4840fa8f3cfe43683dddeff04f68be5f36f5308132b905f90a360405163ab1b236b60e01b815260040160405180910390fd5b5f85815260016020526040812043905560028054829061029190610655565b91829055506040805143815260208101839052919250339188917fd28d48ac6551024dfedc522e233a7098f2a213a6838822dba6fc1d1098c072cf910160405180910390a3505050505050565b6102e6610314565b6102f2828401846109ea565b9392505050565b5f602082101561030a57505f6102f2565b5060019392505050565b6040518060a001604052805f63ffffffff1681526020015f815260200161034c60405180604001604052805f81526020015f81525090565b8152602001610359610366565b8152602001606081525090565b604051806040016040528061037961038b565b815260200161038661038b565b905290565b60405180604001604052806002906020820280368337509192915050565b5f5f83601f8401126103b9575f5ffd5b5081356001600160401b038111156103cf575f5ffd5b6020830191508360208285010111156103e6575f5ffd5b9250929050565b5f5f5f5f5f60608688031215610401575f5ffd5b8535945060208601356001600160401b0381111561041d575f5ffd5b610429888289016103a9565b90955093505060408601356001600160401b03811115610447575f5ffd5b610453888289016103a9565b969995985093965092949392505050565b5f5f60208385031215610475575f5ffd5b82356001600160401b0381111561048a575f5ffd5b610496858286016103a9565b90969095509350505050565b805f5b60028110156104c45781518452602093840193909101906001016104a5565b50505050565b602081525f610140820163ffffffff8451166020840152602084015160408401526040840151610507606085018280518252602090810151910152565b50606084015161051b60a0850182516104a2565b6020015161052c60e08501826104a2565b50608084015161012080850152818151808452610160860191506101608160051b87010193506020830192505f5b818110156106325761015f19878603018352835163ffffffff81511686526020810151606060208801528051806060890152806020830160808a015e5f6080828a010152601f19601f820116880191505060408201519150608087820301604088015260e081016105d960808301845180518252602090810151910152565b602092830151606060c084015280518083529301925f9261010001905b8084101561061957845182526020820191506020850194506001840193506105f6565b509750505060209485019493909301925060010161055a565b50929695505050505050565b5f6020828403121561064e575f5ffd5b5035919050565b5f6001820161067257634e487b7160e01b5f52601160045260245ffd5b5060010190565b634e487b7160e01b5f52604160045260245ffd5b604080519081016001600160401b03811182821017156106af576106af610679565b60405290565b604051606081016001600160401b03811182821017156106af576106af610679565b60405160a081016001600160401b03811182821017156106af576106af610679565b604051601f8201601f191681016001600160401b038111828210171561072157610721610679565b604052919050565b803563ffffffff8116811461073c575f5ffd5b919050565b5f60408284031215610751575f5ffd5b61075961068d565b823581526020928301359281019290925250919050565b5f82601f83011261077f575f5ffd5b61078761068d565b806040840185811115610798575f5ffd5b845b818110156107b257803584526020938401930161079a565b509095945050505050565b5f6001600160401b038211156107d5576107d5610679565b5060051b60200190565b5f606082840312156107ef575f5ffd5b6107f761068d565b90506108038383610741565b815260408201356001600160401b0381111561081d575f5ffd5b8201601f8101841361082d575f5ffd5b803561084061083b826107bd565b6106f9565b8082825260208201915060208360051b850101925086831115610861575f5ffd5b6020840193505b82841015610883578335825260209384019390910190610868565b60208501525091949350505050565b5f82601f8301126108a1575f5ffd5b81356108af61083b826107bd565b8082825260208201915060208360051b8601019250858311156108d0575f5ffd5b602085015b838110156109e05780356001600160401b038111156108f2575f5ffd5b86016060818903601f19011215610907575f5ffd5b61090f6106b5565b61091b60208301610729565b815260408201356001600160401b03811115610935575f5ffd5b82016020810190603f018a13610949575f5ffd5b80356001600160401b0381111561096257610962610679565b610975601f8201601f19166020016106f9565b8181528b6020838501011115610989575f5ffd5b816020840160208301375f6020838301015280602085015250505060608201356001600160401b038111156109bc575f5ffd5b6109cb8a6020838601016107df565b604083015250845250602092830192016108d5565b5095945050505050565b5f602082840312156109fa575f5ffd5b81356001600160401b03811115610a0f575f5ffd5b8201808403610120811215610a22575f5ffd5b610a2a6106d7565b610a3383610729565b815260208381013590820152610a4c8660408501610741565b60408201526080607f1983011215610a62575f5ffd5b610a6a61068d565b9150610a798660808501610770565b8252610a888660c08501610770565b602083015281606082015261010083013591506001600160401b03821115610aae575f5ffd5b610aba86838501610892565b60808201529594505050505056fea26469706673582212208b9fe24c2483f90e3d3dd7e70b6628832c725b92073c3bda8b1908cc7992459464736f6c634300081b0033","linkReferences":{}},"methodIdentifiers":{"QUORUM_THRESHOLD_BPS()":"a6ffee81","_decodeBLSCertificate(bytes)":"b7505a70","allocationManager()":"ca8aa7c7","batchRoots(bytes32)":"e7a315a4","getQuorumThreshold()":"4afa71b9","isBatchSubmitted(bytes32)":"ee3cec7d","operatorSet()":"fa2c4812","submitBatch(bytes32,bytes,bytes)":"80d55c33","totalBatchesSubmitted()":"0e330c2e"},"id":65}