{"abi":[{"type":"function","name":"validatePostTaskCreation","inputs":[{"name":"","type":"bytes32","internalType":"bytes32"}],"outputs":[],"stateMutability":"nonpayable"},{"type":"function","name":"validatePreTaskCreation","inputs":[{"name":"","type":"address","internalType":"address"},{"name":"","type":"tuple","internalType":"struct OperatorSet","components":[{"name":"avs","type":"address","internalType":"address"},{"name":"id","type":"uint32","internalType":"uint32"}]},{"name":"","type":"bytes","internalType":"bytes"}],"outputs":[],"stateMutability":"view"},{"type":"function","name":"validateTaskResultSubmission","inputs":[{"name":"","type":"bytes32","internalType":"bytes32"},{"name":"","type":"tuple","internalType":"struct IBN254CertificateVerifierTypes.BN254Certificate","components":[{"name":"referenceTimestamp","type":"uint32","internalType":"uint32"},{"name":"messageHash","type":"bytes32","internalType":"bytes32"},{"name":"signature","type":"tuple","internalType":"struct BN254.G1Point","components":[{"name":"X","type":"uint256","internalType":"uint256"},{"name":"Y","type":"uint256","internalType":"uint256"}]},{"name":"apk","type":"tuple","internalType":"struct BN254.G2Point","components":[{"name":"X","type":"uint256[2]","internalType":"uint256[2]"},{"name":"Y","type":"uint256[2]","internalType":"uint256[2]"}]},{"name":"nonSignerWitnesses","type":"tuple[]","internalType":"struct IBN254CertificateVerifierTypes.BN254OperatorInfoWitness[]","components":[{"name":"operatorIndex","type":"uint32","internalType":"uint32"},{"name":"operatorInfoProof","type":"bytes","internalType":"bytes"},{"name":"operatorInfo","type":"tuple","internalType":"struct IBN254TableCalculatorTypes.BN254OperatorInfo","components":[{"name":"pubkey","type":"tuple","internalType":"struct BN254.G1Point","components":[{"name":"X","type":"uint256","internalType":"uint256"},{"name":"Y","type":"uint256","internalType":"uint256"}]},{"name":"weights","type":"uint256[]","internalType":"uint256[]"}]}]}]}],"outputs":[],"stateMutability":"nonpayable"}],"bytecode":{"object":"0x6080604052348015600e575f5ffd5b506105ce8061001c5f395ff3fe608060405234801561000f575f5ffd5b506004361061003f575f3560e01c8063485e73b8146100435780638679c78114610057578063e507027a14610068575b5f5ffd5b6100556100513660046103fa565b5050565b005b6100556100653660046104e4565b50565b610055610076366004610511565b505050565b634e487b7160e01b5f52604160045260245ffd5b604080519081016001600160401b03811182821017156100b1576100b161007b565b60405290565b604051606081016001600160401b03811182821017156100b1576100b161007b565b60405160a081016001600160401b03811182821017156100b1576100b161007b565b604051601f8201601f191681016001600160401b03811182821017156101235761012361007b565b604052919050565b803563ffffffff8116811461013e575f5ffd5b919050565b5f60408284031215610153575f5ffd5b61015b61008f565b823581526020928301359281019290925250919050565b5f82601f830112610181575f5ffd5b61018961008f565b80604084018581111561019a575f5ffd5b845b818110156101b457803584526020938401930161019c565b509095945050505050565b5f6001600160401b038211156101d7576101d761007b565b5060051b60200190565b5f82601f8301126101f0575f5ffd5b81356001600160401b038111156102095761020961007b565b61021c601f8201601f19166020016100fb565b818152846020838601011115610230575f5ffd5b816020850160208301375f918101602001919091529392505050565b5f82601f83011261025b575f5ffd5b813561026e610269826101bf565b6100fb565b8082825260208201915060208360051b86010192508583111561028f575f5ffd5b602085015b838110156103f05780356001600160401b038111156102b1575f5ffd5b86016060818903601f190112156102c6575f5ffd5b6102ce6100b7565b6102da6020830161012b565b815260408201356001600160401b038111156102f4575f5ffd5b6103038a6020838601016101e1565b60208301525060608201356001600160401b03811115610321575f5ffd5b6020818401019250506060828a031215610339575f5ffd5b61034161008f565b61034b8a84610143565b815260408301356001600160401b03811115610365575f5ffd5b80840193505089601f840112610379575f5ffd5b8235610387610269826101bf565b8082825260208201915060208360051b87010192508c8311156103a8575f5ffd5b6020860195505b828610156103ca5785358252602095860195909101906103af565b806020850152505050806040830152508085525050602083019250602081019050610294565b5095945050505050565b5f5f6040838503121561040b575f5ffd5b8235915060208301356001600160401b03811115610427575f5ffd5b830180850361012081121561043a575f5ffd5b6104426100d9565b61044b8361012b565b8152602083810135908201526104648760408501610143565b60408201526080607f198301121561047a575f5ffd5b61048261008f565b91506104918760808501610172565b82526104a08760c08501610172565b602083015281606082015261010083013591506001600160401b038211156104c6575f5ffd5b6104d28783850161024c565b60808201528093505050509250929050565b5f602082840312156104f4575f5ffd5b5035919050565b80356001600160a01b038116811461013e575f5ffd5b5f5f5f8385036080811215610524575f5ffd5b61052d856104fb565b93506040601f1982011215610540575f5ffd5b5061054961008f565b610555602086016104fb565b81526105636040860161012b565b6020820152915060608401356001600160401b03811115610582575f5ffd5b61058e868287016101e1565b915050925092509256fea2646970667358221220760350a2b9c523c0f1da7835f92a627b7526a4b5e27747a49a9b816821b7b1a464736f6c634300081b0033","linkReferences":{}},"methodIdentifiers":{"validatePostTaskCreation(bytes32)":"8679c781","validatePreTaskCreation(address,(address,uint32),bytes)":"e507027a","validateTaskResultSubmission(bytes32,(uint32,bytes32,(uint256,uint256),(uint256[2],uint256[2]),(uint32,bytes,((uint256,uint256),uint256[]))[]))":"485e73b8"},"id":94}