{"abi":[{"type":"constructor","inputs":[{"name":"_allocationManager","type":"address","internalType":"contract IAllocationManager"},{"name":"_operatorSet","type":"tuple","internalType":"struct OperatorSet","components":[{"name":"avs","type":"address","internalType":"address"},{"name":"id","type":"uint32","internalType":"uint32"}]},{"name":"_batchSettlement","type":"address","internalType":"address"}],"stateMutability":"nonpayable"},{"type":"function","name":"allocationManager","inputs":[],"outputs":[{"name":"","type":"address","internalType":"contract IAllocationManager"}],"stateMutability":"view"},{"type":"function","name":"batchSettlement","inputs":[],"outputs":[{"name":"","type":"address","internalType":"address"}],"stateMutability":"view"},{"type":"function","name":"dispute","inputs":[{"name":"root","type":"bytes32","internalType":"bytes32"},{"name":"orderAIdx","type":"uint256","internalType":"uint256"},{"name":"orderBIdx","type":"uint256","internalType":"uint256"},{"name":"proof","type":"bytes","internalType":"bytes"}],"outputs":[],"stateMutability":"nonpayable"},{"type":"function","name":"disputedRoots","inputs":[{"name":"","type":"bytes32","internalType":"bytes32"}],"outputs":[{"name":"","type":"bool","internalType":"bool"}],"stateMutability":"view"},{"type":"function","name":"getDisputeCount","inputs":[],"outputs":[{"name":"count","type":"uint256","internalType":"uint256"}],"stateMutability":"view"},{"type":"function","name":"isRootDisputed","inputs":[{"name":"root","type":"bytes32","internalType":"bytes32"}],"outputs":[{"name":"disputed","type":"bool","internalType":"bool"}],"stateMutability":"view"},{"type":"function","name":"operatorSet","inputs":[],"outputs":[{"name":"avs","type":"address","internalType":"address"},{"name":"id","type":"uint32","internalType":"uint32"}],"stateMutability":"view"},{"type":"function","name":"totalDisputes","inputs":[],"outputs":[{"name":"","type":"uint256","internalType":"uint256"}],"stateMutability":"view"},{"type":"event","name":"DisputeFailed","inputs":[{"name":"root","type":"bytes32","indexed":true,"internalType":"bytes32"},{"name":"challenger","type":"address","indexed":true,"internalType":"address"},{"name":"reason","type":"string","indexed":false,"internalType":"string"}],"anonymous":false},{"type":"event","name":"Disputed","inputs":[{"name":"root","type":"bytes32","indexed":true,"internalType":"bytes32"},{"name":"challenger","type":"address","indexed":true,"internalType":"address"},{"name":"orderAIdx","type":"uint256","indexed":false,"internalType":"uint256"},{"name":"orderBIdx","type":"uint256","indexed":false,"internalType":"uint256"},{"name":"slashedOperators","type":"uint256","indexed":false,"internalType":"uint256"}],"anonymous":false},{"type":"error","name":"BatchRootNotFound","inputs":[]},{"type":"error","name":"InvalidMerkleProof","inputs":[]},{"type":"error","name":"InvalidOrderIndices","inputs":[]},{"type":"error","name":"OrdersCorrectlyOrdered","inputs":[]},{"type":"error","name":"RootAlreadyDisputed","inputs":[]}],"bytecode":{"object":"0x60c060405234801561000f575f5ffd5b50604051610b00380380610b0083398101604081905261002e9161009d565b6001600160a01b0392831660805281515f805460209094015163ffffffff16600160a01b026001600160c01b031990941691851691909117929092179091551660a052610142565b6001600160a01b038116811461008a575f5ffd5b50565b805161009881610076565b919050565b5f5f5f83850360808112156100b0575f5ffd5b84516100bb81610076565b93506040601f19820112156100ce575f5ffd5b50604080519081016001600160401b03811182821017156100fd57634e487b7160e01b5f52604160045260245ffd5b604052602085015161010e81610076565b8152604085015163ffffffff81168114610126575f5ffd5b602082015291506101396060850161008d565b90509250925092565b60805160a0516109976101695f395f818160d7015261022401525f61013401526109975ff3fe608060405234801561000f575f5ffd5b5060043610610085575f3560e01c8063c5e4ccc411610058578063c5e4ccc414610126578063ca8aa7c71461012f578063f9f0675f14610156578063fa2c481214610178575f5ffd5b806310987b7714610089578063479c457a146100a0578063c005e495146100d2578063c4cb283e14610111575b5f5ffd5b6002545b6040519081526020015b60405180910390f35b6100c26100ae366004610663565b5f9081526001602052604090205460ff1690565b6040519015158152602001610097565b6100f97f000000000000000000000000000000000000000000000000000000000000000081565b6040516001600160a01b039091168152602001610097565b61012461011f36600461067a565b6101bd565b005b61008d60025481565b6100f97f000000000000000000000000000000000000000000000000000000000000000081565b6100c2610164366004610663565b60016020525f908152604090205460ff1681565b5f54610199906001600160a01b03811690600160a01b900463ffffffff1682565b604080516001600160a01b03909316835263ffffffff909116602083015201610097565b8284106101dd57604051632b5a902560e01b815260040160405180910390fd5b5f8581526001602052604090205460ff161561020c5760405163da2845c760e01b815260040160405180910390fd5b60405163ee3cec7d60e01b8152600481018690525f907f00000000000000000000000000000000000000000000000000000000000000006001600160a01b03169063ee3cec7d906024016040805180830381865afa158015610270573d5f5f3e3d5ffd5b505050506040513d601f19601f820116820180604052508101906102949190610701565b509050806102b557604051630ef801a560e41b815260040160405180910390fd5b5f5f5f5f6102c387876104a4565b93509350935093505f6102d5856104d3565b90505f6102e1856104d3565b90506102ee848d8461055d565b15806103025750610300838d8361055d565b155b1561038957336001600160a01b03168c7fddbc10f0e5727670eb6987b4320bed87c85e1006b10481bea9ef4f871e7da2496040516103689060208082526014908201527324b73b30b634b21036b2b935b63290383937b7b360611b604082015260600190565b60405180910390a360405163582f497d60e11b815260040160405180910390fd5b6103938686610572565b1561042357336001600160a01b03168c7fddbc10f0e5727670eb6987b4320bed87c85e1006b10481bea9ef4f871e7da2496040516104029060208082526018908201527f4f726465727320636f72726563746c79206f7264657265640000000000000000604082015260600190565b60405180910390a3604051636e27961f60e01b815260040160405180910390fd5b5f8c81526001602081905260408220805460ff19168217905560028054919261044b83610731565b9091555050604080518d8152602081018d905290810182905233908e907f14d8f4119c03d386c5b13aa5e987a30e33348de6824bb0d782016c55ba59e66b9060600160405180910390a350505050505050505050505050565b6104ac61061b565b6104b461061b565b6060806104c3858701876108c3565b9299919850965090945092505050565b80516020808301516040808501516060860151608087015160a088015160c089015194515f986105409890979691016001600160a01b03978816815295909616602086015260408501939093526060840191909152608083015260a082015260c081019190915260e00190565b604051602081830303815290604052805190602001209050919050565b5f8261056985846105aa565b14949350505050565b5f81604001518360400151146105955781604001518360400151101590506105a4565b81608001518360800151111590505b92915050565b5f81815b84518110156105e4576105da828683815181106105cd576105cd61094d565b60200260200101516105ec565b91506001016105ae565b509392505050565b5f818310610606575f828152602084905260409020610614565b5f8381526020839052604090205b9392505050565b6040518060e001604052805f6001600160a01b031681526020015f6001600160a01b031681526020015f81526020015f81526020015f81526020015f81526020015f81525090565b5f60208284031215610673575f5ffd5b5035919050565b5f5f5f5f5f6080868803121561068e575f5ffd5b853594506020860135935060408601359250606086013567ffffffffffffffff8111156106b9575f5ffd5b8601601f810188136106c9575f5ffd5b803567ffffffffffffffff8111156106df575f5ffd5b8860208284010111156106f0575f5ffd5b959894975092955050506020019190565b5f5f60408385031215610712575f5ffd5b82518015158114610721575f5ffd5b6020939093015192949293505050565b5f6001820161074e57634e487b7160e01b5f52601160045260245ffd5b5060010190565b634e487b7160e01b5f52604160045260245ffd5b604051601f8201601f1916810167ffffffffffffffff8111828210171561079257610792610755565b604052919050565b80356001600160a01b03811681146107b0575f5ffd5b919050565b5f60e082840312156107c5575f5ffd5b60405160e0810167ffffffffffffffff811182821017156107e8576107e8610755565b6040529050806107f78361079a565b81526108056020840161079a565b602082015260408381013590820152606080840135908201526080808401359082015260a0808401359082015260c092830135920191909152919050565b5f82601f830112610852575f5ffd5b813567ffffffffffffffff81111561086c5761086c610755565b8060051b61087c60208201610769565b91825260208185018101929081019086841115610897575f5ffd5b6020860192505b838310156108b957823582526020928301929091019061089e565b9695505050505050565b5f5f5f5f61020085870312156108d7575f5ffd5b6108e186866107b5565b93506108f08660e087016107b5565b92506101c085013567ffffffffffffffff81111561090c575f5ffd5b61091887828801610843565b9250506101e085013567ffffffffffffffff811115610935575f5ffd5b61094187828801610843565b91505092959194509250565b634e487b7160e01b5f52603260045260245ffdfea264697066735822122027b4dd8f7defa3e72d413eb6b467c5bf2253485ac03312d0fc0d70643ae79e2164736f6c634300081b0033","linkReferences":{}},"methodIdentifiers":{"allocationManager()":"ca8aa7c7","batchSettlement()":"c005e495","dispute(bytes32,uint256,uint256,bytes)":"c4cb283e","disputedRoots(bytes32)":"f9f0675f","getDisputeCount()":"10987b77","isRootDisputed(bytes32)":"479c457a","operatorSet()":"fa2c4812","totalDisputes()":"c5e4ccc4"},"id":66}